:020000020000FC
:100000000C948D010F932F933F93009132000F7D3D
:1000100024FD00620093340000912C00077F25FD31
:10002000086000932E0000910001077F26FD086004
:1000300000930201009100010F7E27FD00610093F3
:1000400002010091000100640093020131E00E946E
:100050005001009100010F7B009302013F912F910D
:100060000F9108952F933F930F93DF93CF93DEB7B4
:10007000CDB729850E94020032E30E9450012295EB
:100080000E94020032E30E945001CF91DF910F9154
:100090003F912F9108950F933F932F93DF93CF9329
:1000A000DEB7CDB72985009100010F7D00930201D5
:1000B0002F930E9432002F91243018F432E00E94D6
:1000C0005A01CF91DF912F913F910F9108950F9396
:1000D0002F93DF93CF93DEB7CDB728850091000132
:1000E0000062009302012F930E9432002F91009131
:1000F0000102039500930102CF91DF912F910F919F
:1001000008950F931F93DF93CF93FF93EF93DEB781
:10011000CDB7FB85EA851191103029F01F930E941D
:1001200067001F91F8CFEF91FF91CF91DF911F9161
:100130000F9108950F931F93DF93CF93DEB7CDB741
:100140000885198511301CF011E00C94AA000F30BD
:100150000CF00FE01093000200930102113019F42B
:1001600010EC0C94B40010E8010F0F930E944B00A8
:100170000F91CF91DF911F910F9108950F9301E09F
:100180000F930E944B000F910027009300020093F1
:1001900001020F9108950F932F933F930091330025
:1001A000006200933300009132000F7D0093340011
:1001B00000912D00086000932D0000912C00077F16
:1001C00000932E000091010108600093010100914D
:1001D0000001077F0093020100910101006100937B
:1001E0000101009100010F7E0093020100910101C5
:1001F000006200930101009100010F7D0093020154
:1002000000910101006400930101009100010F7B46
:10021000009302013FE00E945A0135E00E945A011A
:1002200020E30E94020035E00E945A0120E30E9470
:10023000020057E03FE00E945A015A95D9F720E3A7
:100240000E94020032E30E94500120E20E9402005C
:1002500032E30E94500108E20F930E944B000F917D
:1002600008E00F930E944B000F9101E00F930E9452
:100270004B000F9132E00E945A0106E00F930E945A
:100280004B000F910CE00F930E944B000F91002741
:1002900000930002009301023F912F910F91089566
:1002A0000F933F9305E00A95F1F73A95D9F73F91FF
:1002B0000F9108950F931F933F93DF93CF930DEF0B
:1002C000309F012D0295007FD02F002D0295102F19
:1002D000007F1F70C02FD12B2197F1F7CF91DF91B5
:1002E0003F911F910F9108950F93FF93EF93BF9349
:1002F000AF93DF93CF93DEB7CDB7EB85FC85AD85AC
:10030000BE85059100300D93E1F7CF91DF91AF915C
:10031000BF91EF91FF910F9108950E94CB000E9431
:10032000B2010E94F9010E94020207E800937A00DC
:1003300000E400937C000E94BE000E94D1010E9454
:10034000E6010E940B020E942E020E94D1010E942F
:10035000E6010E9451020E94690240E40E9481026B
:10036000EACFFFCF0F9302E00F9302E00F9306E076
:100370000F9306E20F930E9474010F910F910F915A
:100380000F9102E00F930AEC0F9306E00F9300E643
:100390000F930E9474010F910F910F910F910F9184
:1003A00008950F930E94BE0000E00F9300E00F93AA
:1003B0000E949A000F910F9103E00F9302E90F93AF
:1003C0000E9481000F910F910F9108951F9311E0EA
:1003D0001F9310E01F930E949A001F911F9113E03A
:1003E0001F9313EA1F930E9481001F911F911F9179
:1003F00008950F9302E00093B40302E00093B50365
:100400000F9108950F930AEC0093B60302E0009356
:10041000B7030F910895BF93AF93DF93CF931F93CB
:100420002F93112720E0B3E0A2E9C091B403D0914B
:10043000B5031991103009F003C0D2E0C2E0199160
:100440001D932395203109F0F4CF20E02C932F91B8
:100450001F91CF91DF91AF91BF910895BF93AF935B
:10046000DF93CF931F932F93112720E0B3E0A3EAEC
:10047000C091B603D091B7031991103009F003C0B1
:10048000D2E0CAEC19911D932395203109F0F4CFE5
:1004900020E02C932F911F91CF91DF91AF91BF91CD
:1004A0000895BF93AF931F93A091B403B091B50388
:1004B00011961C91103009F003C00E94F90105C08B
:1004C000A093B403B093B50300C01F91AF91BF9147
:1004D0000895BF93AF931F93A091B603B091B70354
:1004E00011961C91103009F003C00E94020205C051
:1004F000A093B603B093B70300C01F91AF91BF9113
:100500000895000057E0000060E10E94E40282309C
:1005100059F0813099F0883091F16A95B1F75A9588
:1005200091F74A9571F708950E94E4028430D9F357
:10053000FBCF0E94E402843001F1FBCF0E94BE0099
:100540000E94D1010E940B020E94D1010E9451021F
:1005500040E4000057E0000060E10E94E4028230C5
:1005600041F3813059F3883051F0803139F06A9588
:10057000A1F75A9581F74A9561F7E0CFD4CF0E9451
:10058000BE000E94E6010E942E020E94E6010E9427
:10059000690240E4000057E0000060E10E94E402CC
:1005A000823069F0813051F2883049F3803131F383
:1005B0006A95A1F75A9581F74A9561F7E0CF0E94B5
:1005C000E4028430D9F3FBCF0F931F9300917A009C
:1005D000006400937A0000917A000074E1F70091C2
:1005E0007800109179008827133021F0103029F01D
:1005F000113039F0083E40F411C0033338F0043CA8
:1006000038F00C3748F406C080E00AC081E008C02A
:1006100082E006C084E004C088E002C080E100C03F
:100620001F910F9108955665676574612C20776856
:10063000617420646F6573207468652073636F75DF
:10064000746572207361792061626F7574206869C6
:100650007320706F776572206C6576656C3F200043
:10066000497473206F766572203930303021200054
:00000001FF
