S00C0000413476322E73726563FB
S113000071C000008EC000008CC000008AC00000D7
S113001088C0000086C0000084C0000082C00000C8
S113002080C000007EC000007CC000007AC00000D8
S113003078C0000076C0000074C0000072C00000E8
S113004070C000006EC000006CC000006AC00000F8
S113005068C0000066C0000064C0000062C0000008
S113006060C000005EC000005CC000005AC0000018
S113007058C0000056C0000054C0000052C0000028
S113008050C000004EC000004CC000004AC0000038
S113009048C0000046C0000044C0000042C0000048
S11300A040C000003EC000003CC000003AC0000058
S11300B038C0000036C0000034C0000032C0000068
S11300C030C000002EC000002CC000002AC0000078
S11300D028C0000026C0000024C0000022C0000088
S11300E020C0000011241FBECFEFD1E2DEBFCDBF80
S11300F000E00CBF12E0A0E0B2E0E8E8F4E000E0C9
S11301000BBF02C007900D92A434B107D9F722E0C7
S1130110A4E4B2E001C01D92AA34B207E1F754D1BD
S1130120B1C16ECFE2E0F1E090819F7E908388239D
S11301301CF4908190619083E2E0F1E09081977FDC
S1130140908386FF03C0908198609083739885FDA7
S1130150739AA59884FDA59AE2E0F1E08081806419
S1130160808385E08A95F1F7000080818F7B80830E
S11301700895CF93C82FE2E0F1E080818F7D8083E2
S11301808C2FD0DF8C2F8295807FCCDF87EC90E0A2
S11301900197F1F700C00000C43018F0C03850F0E7
S11301A007C08FE39FE10197F1F700C00000C0E8AA
S11301B0C0930402CF910895CF93C82FE2E0F1E0F9
S11301C08081806280838C2FADDF8C2F8295807F2D
S11301D0A9DF87EC90E00197F1F700C0000080915F
S11301E004028F5F80930402803921F0803D21F462
S11301F080E801C080ECBDDFCF910895CF93DF93F9
S1130200EC018881882329F02196D6DF8991811118
S1130210FCCFDF91CF910895CF93882329F0C82F85
S113022080E2CADFC150E1F7CF9108959D9A6B9A9D
S1130230E1E0F1E080818860808380818061808357
S1130240808180628083808180648083E2E0F1E049
S113025080818F7B808380818F7D80838FE59AEE80
S11302600197F1F700C0000080E35CDF8FE090E4C9
S11302700197F1F700C0000080E354DF8FE891E0BC
S11302800197F1F700C0000080E34CDF87EC90E0B9
S11302900197F1F700C0000080E244DF87EC90E0B2
S11302A00197F1F700C0000088E263DF88E061DFB6
S11302B081E05FDF86E05DDF8CE05BCF0895FC01C9
S11302C0DB0180E190E02081222319F02D93319607
S11302D002C0E42FF52F0197B1F70895FC01DB016B
S11302E080E190E02081222319F02D93319602C001
S11302F0E42FF52F0197B1F70895E0914402F091AE
S113030045028081811108C080910202909103020C
S11303109093450280934402809144029091450257
S113032001969093450280934402E0914602F09135
S113033047028081811108C08091000290910102DE
S1130340909347028093460280914602909147021F
S1130350019690934702809346020895EAE7F0E0FD
S1130360808180648083808186FDFDCF2091780028
S11303708091790090E0982F8827820F911D823315
S1130380910568F0833C910568F08C3721E0920771
S113039060F08B32924060F085E090E0089581E057
S11303A090E0089582E090E0089583E090E008955D
S11303B084E090E00895029731F4D0DF039719F0B8
S11303C0CDDF0397E9F70895CF93DF93CDB7DEB779
S11303D0A2970FB6F894DEBF0FBECDBF198A8091E5
S11303E002029091030290934502809344021AA260
S11303F080910002909101029093470280934602FB
S113040015DF87E880937A0080E480937C0080E89D
S1130410B0DE81E101DF4091020250910302BE018E
S11304206F5F7F4F809144029091450248DF80E8DE
S1130430A0DECE010196E2DE80EC9BDE81E1ECDE03
S11304404091000250910102BE016E5E7F4F809187
S113045046029091470242DF80EC8BDECE01429649
S1130460CDDE4BDF7BDF9093490280934802A3DF0C
S11304702FEF8EE994E2215080409040E1F700C0D4
S10B04800000C5CFF894FFCF82
S113048805022B028054686973206A75737420739B
S113049863726F6C6C73206F6E207468652073656B
S11304A8636F6E64206C696E652000486F706566C2
S11304B8756C6C792054686973207363726F6C6C03
S10704C87320000099
S9030000FC
